:020000040800F2
:100000000805002045010008512900085113000887
:100010003129000893090008DF3B000800000000B8
:100020000000000000000000000000004D3000084B
:100030007D0C000800000000052E00083931000882
:100040005F0100085F0100085F0100085F01000810
:100050005F0100085F0100085F0100085F01000800
:10006000D50F00085F0100085F0100085F0100086C
:100070005F0100085F0100085F0100085F010008E0
:100080005F0100085F0100085F0100085F010008D0
:100090005F0100085F0100085F0100085F010008C0
:1000A0005F0100085F0100085F0100085F010008B0
:1000B0005F0100085F0100085F0100085F010008A0
:1000C0005F0100085F0100085F0100085F01000890
:1000D0005F010008713900085F0100085F01000836
:1000E000710F00085F0100085F0100085F01000850
:1000F0005F0100085F0100085F0100085F01000860
:100100005F0100085F0100085F0100085F0100084F
:100110005F0100085F0100086934000869350008C4
:100120005F0100085F0100085F0100085F0100082F
:10013000DFF80CD000F0DAFB00480047493C00082B
:10014000080500200648804706480047FEE7FEE70E
:10015000FEE7FEE7FEE7FEE7FEE7FEE7FEE7FEE777
:100160003D31000831010008421C10F8011B002934
:10017000FBD1801A7047F0B480EA0102D40F42002C
:10018000B2EB410F02D20246084611464A0042D065
:10019000C30DDDB2C1F3C752AD1A202D35DAC1F35C
:1001A000160141F4000204B15242C5F1200602FAE0
:1001B00006F12A411044B3EBD05F23D0C4B1012D26
:1001C000A0EBC35009DCF0BC4FF0004202EAC3527E
:1001D000DBB200F5000000F0FDBA400000F18070D5
:1001E00000EBC350A0F1807040EAD170490009E0F3
:1001F000490841EAC071A0EBC35000F50000400877
:1002000000EBC350F0BC00F0DCBA6142012202EB0B
:100210004101001BF6E7F0BC704781F00041AAE7FE
:1002200080F00040A7E780EA010210B502F0004329
:10023000400022D04A001FD0010E01EB1261C0F332
:100240005600C2F3560240F4000042F40002A0FB44
:10025000022000047F39140400D0401C50EA1240F0
:1002600001D44000491EC2B20C0604EBD010401C61
:100270004008802A02D003E0002010BD20F00100D9
:10028000002900DA0020184310BD30B480EA0102D2
:1002900002F0004530F0004221F0004013D090B150
:1002A000C30DD40DC2F31601C0F31600E41A41F4D5
:1002B000000140F400027D34914201D3641C00E04F
:1002C0004900002C02DA30BC002070474FF40000D7
:1002D0000023914201D3891A034340084FEA4101A8
:1002E000F7D151B1914202D14FF0004105E002D265
:1002F0004FF0010101E06FF0010103EBC45028440D
:1003000030BC00F05EBA2DE9FE4F804681EA030062
:10031000C00F0C46009021F0004123F00045B8EBDF
:100320000200A94105D24046214690461C460B4694
:10033000024623F00040104347D0270DC7F30A00C0
:10034000C3F30A510290401A019040286BDAC3F3BC
:10035000130040F4801B0098924620B10023D2EB9A
:10036000030A63EB0B0B01985946C0F1400250465B
:1003700000F0F6F906460D4650465946019A00F03F
:100380000EFA10EB08006141002487EA115284EA5A
:10039000E7731A4340D0009A62B3019A012A4FEAE8
:1003A000075215DC001B61EB02014FF0004202EA2C
:1003B0000752CDE90042001C41F5801132462B4620
:1003C00000F045FA03B0BDE8F08F40462146F9E75A
:1003D000001B61EB0201001C41F5801300185B411A
:1003E0002018A2F5001747EB030140EAD570B619B3
:1003F0006D4111E06D084FEA360645EAC0754FEAD7
:100400000752001B61EB0201001C41F580114908F5
:100410004FEA30000019514132462B4603B0BDE887
:10042000F04F00F005BA0098012240000023D0EB05
:10043000020263EBE073009821464FEAE074B8EBE8
:10044000000061EB0401E9E783F000435BE781F022
:10045000004158E72DE9FE4F81EA030404F000440F
:1004600021F0004100944FF0000B23F0004350EACC
:1004700001045ED052EA03045BD0C3F30A54C1F313
:100480000A552C44A4F2F3340194A0FB0254C1F3A6
:10049000130141F48011C3F3130343F4801301FBF0
:1004A000024400FB034E840A970A44EA815447EA57
:1004B0008357A4FB076802958D0A05FB07854FEA61
:1004C000932C04FB0C542705029D4FEA065847EA7B
:1004D0001637B5EB08056EEB070C870E920E47EA50
:1004E000811742EA8312A7FB0201B6EB0B0164EB12
:1004F00000042B0D43EA0C335E1844EB1C50DA4623
:100500005146E7FB0201C5F313044FEA0B3343EAFC
:1005100014534FEA0432019C43EA0603A4F10C048D
:100520000294009CCDE900B400F091F903B0BDE85D
:10053000F08F00200146F9E72DE9F04D81EA030430
:1005400004F0004B21F0004514464FF0000A23F060
:10055000004150EA050220D054EA01021DD0C5F343
:100560000A570246C5F31303C1F31300C1F30A5639
:1005700040F4801543F48013A7EB0608101BD64601
:1005800008F2FD3873EB050002D308F1010801E021
:1005900092185B41B8F1000F03DA00200146BDE874
:1005A000F08D00204FF48011064684460EE0171BA4
:1005B00073EB050705D3121B63EB050306434CEAF7
:1005C000010C49084FEA300092185B4150EA0107DC
:1005D000EDD152EA030012D082EA040083EA050159
:1005E000084305D0101BAB4106D20122002306E0D0
:1005F00000224FF0004302E06FF0010253101AEBAB
:1006000006004CEB085110EB0A0041EB0B01BDE872
:10061000F04D00F00DB9C10F80EAE0700844CA0740
:100620009623002100F0D6B896230022114600F050
:10063000D1B80EB540F2334102910021CDE900114D
:100640000A460B4600F003F903B000BD00F000427B
:1006500020F00040C10DC0F3160040F400007F29D7
:1006600001DA00207047962903DCC1F19601C840E9
:1006700001E096398840002AF4D04042704720F0CB
:100680000040C10DC0F3160040F400007F2901DADC
:1006900000207047962903DCC1F19601C8407047DD
:1006A000963988407047C1F30A5210B5C1F313015F
:1006B00040F2FF3341F480119A4201DA002010BD6C
:1006C00040F233439A42A2F2334203DC524200F03A
:1006D00056F810BD904010BD00F0004230F00040D0
:1006E0000AD0C10D01F56071C0F3160042EA015154
:1006F000C20840071143704700200146704701F0CF
:10070000004330B421F0004150EA010206D00A0D46
:10071000A2F56072C1F31301002A02DC30BC002094
:100720007047440F44EAC104C100E01830BC00EB3C
:10073000C25000F046B80000002801DBC0F10040C4
:10074000002901DBC1F1004181427047002801DB33
:10075000C0F10040002901DBC1F10041884270472F
:10076000202A04DB203A00FA02F100207047914071
:10077000C2F1200320FA03F3194390407047202A66
:1007800004DB203A21FA02F00021704721FA02F33B
:10079000D040C2F120029140084319467047202AF8
:1007A00006DBCB17203A41FA02F043EAE07306E099
:1007B00041FA02F3D040C2F12002914008431946A9
:1007C00070470029A8BF7047401C490008BF20F0AF
:1007D0000100704710B4B0FA80FC00FA0CF050EA47
:1007E000010404BF10BC704749B1CCF1200421FAC8
:1007F00004F411FA0CF118BF012121430843A3EBC3
:100800000C01CB1D4FEA00614FEA102042BF0020CF
:1008100010BC704700EBC35010440029A4BF10BCAB
:100820007047401C490008BF20F0010010BC704711
:1008300010B5141E73F1000408DA401C41F10001E8
:1008400092185B411A4301D120F0010010BD2DE93F
:10085000F04D92469B4611B1B1FA81F202E0B0FA36
:1008600080F220329046FFF77BFF04460F4640EAB5
:100870000A0041EA0B0153465A46084313D0114679
:1008800053EA010019D0C8F140025046FFF777FF44
:1008900005460E46504659464246FFF761FF08435B
:1008A00005D0012004E020463946BDE8F08D002047
:1008B000054346EAE0762C4337430A986305E40A89
:1008C000A0EB08000022FD0A44EA47540A3002D592
:1008D00000200146E9E7010510196941DDE90845F5
:1008E00000196941BDE8F04DA2E70000064C074D34
:1008F00006E0E06840F0010394E8070098471034F0
:10090000AC42F6D3FFF718FC147F0008347F0008D0
:100910000EB50121102002F00FFB4FF4FA60ADF884
:1009200004000020ADF80600ADF802004720ADF845
:10093000000000208DF8080069460A4802F0C6FF52
:100940000121084802F04AFE01221146054802F042
:10095000F8FE0121034802F047FE0121102002F0B9
:10096000EBFA0EBD0010004008B54FF4C06002F075
:100970004FF836208DF8000001208DF8030000208C
:100980008DF8010003208DF80200684602F008F897
:1009900008BD00BFFEE7000010B5644800780628D7
:1009A0007ED2DFE800F0A003224160812A2360A20A
:1009B0001021002003F04EFA20235DA210217820A0
:1009C00003F048FA20235AA21946002003F042FA05
:1009D000202357A21946502003F03CFA202354A2AA
:1009E0001946A02003F036FA9DE0202350A21021E2
:1009F000002003F02FFA2A234DA21021782003F0C3
:100A000029FA20234AA21946002003F023FA2023C2
:100A100047A21946502003F01DFA202344A219468C
:100A2000A02003F017FA7EE0202341A2102100202D
:100A300003F010FA20233EA21021782003F00AFAD6
:100A40002A233BA22021002003F004FA202338A20D
:100A50001946502003F0FEF9202335A21946A020A4
:100A600003F0F8F95FE0202331A21021002003F009
:100A7000F1F920232EA21021782003F0EBF9202396
:100A80002BA21946002003F0E5F92A2328A22021F1
:100A9000502003F0DFF9202325A21946A02000E012
:100AA00040E003F0D7F93EE0202321A210210020EE
:100AB00003F0D0F920231EA21021782003F0CAF9F8
:100AC00020231BA21946002003F0C4F9202318A2FA
:100AD0001946502003F0BEF92A2315A22021A02098
:100AE00003F0B8F91FE0202311A21021002003F029
:100AF000B1F920230EA21021782003F0ABF92023B6
:100B00000BA21946002003F0A5F9202308A21946DC
:100B1000502003F09FF9202305A21946A02003F0DE
:100B200099F900E000BF00BF10BD00005200002096
:100B3000256300000EB50121202002F0FDF940F6EA
:100B4000C410ADF804000020ADF80600ADF80200B6
:100B500041F61F40ADF8000000208DF808006946FE
:100B60000A4802F0B3FE0121084802F037FD0122D5
:100B70001146064802F0E5FD0121044802F034FD6B
:100B80000121202002F0D8F90EBD00000014004021
:100B900008B537208DF8000001208DF803000020F3
:100BA0008DF8010004208DF80200684601F0F8FE7F
:100BB00008BD000010B51448007890B913480068CB
:100BC000134908601148406948601048806988608E
:100BD0000E48C069C86010220A210D4800F09CF937
:100BE00011E00C4800680A4908600A4840694860FA
:100BF0000848806988600748C069C8601022502191
:100C0000034800F089F910BD14000020880000207E
:100C100058000020A800002010B51448007890B9B2
:100C200010220A21124800F051F9114800681149B8
:100C300008600F48406848610D48806888610C482A
:100C4000C068C86111E010225021094800F03EF947
:100C5000074800680849086005484068486104483A
:100C6000806888610248C068C86110BD1400002017
:100C70005800002088000020A800002070470000D5
:100C800010B5104A11685068FFF760FD09D24FF4A3
:100C900000610D4800F05AFB4FF480510A4800F003
:100CA00053FB084A11685068FFF746FD09D24FF41C
:100CB0008051054800F04AFB4FF40061024800F003
:100CC00043FB10BD680000200008014008B5012169
:100CD000042002F041F94FF4C050ADF8000010209C
:100CE0008DF8030003208DF802006946014800F0EA
:100CF00093FA08BD000801402DE9F047304800880C
:100D00003049088030480088C01C3049088030488D
:100D10000078A0B92F494868FFF7DEFC80464FF005
:100D200033322D4BFFF796FB064600222B4BFFF785
:100D30008EFB0446FFF7B7FC2949088012E02549DD
:100D40004868FFF7C9FC0646264A274BFFF782FB97
:100D500004460022214BFFF77AFB8046FFF7A3FCF5
:100D60001F4908801E480088602802DC60201C495A
:100D700008801B48038815480288124801881248D9
:100D8000008800F087FC164800880D4908800E484E
:100D90000088C01C0C49088008460088E6280DDB46
:100DA0001E200880C8231A4664211D2000F0D2FBB3
:100DB000C42304226421E42000F0CCFBBDE8F087CA
:100DC0002800002024000020200000202200002015
:100DD00014000020680000203333FB3F00C0724045
:100DE000260000203D0AD7A3703DE23F10B54FF426
:100DF00096731C226021104600F04CFC4FF4967351
:100E0000E82219461C2000F045FC642318226021CA
:100E10001C2000F03FFC6423202260211C2000F0F5
:100E200039FC4FF49673E822191FE42000F032FCDD
:100E30004FF49673E822191DE42000F02BFC932355
:100E40001C221946182000F025FCC6231C22194636
:100E5000182000F01FFCF9231C221946182000F06E
:100E600019FC01F001FDC08800EB40004004040CB7
:100E700013A1204600F0DAFB01F0F6FCC088C0EBBD
:100E8000C00084B20FA1204600F0D0FB01F0ECFCC2
:100E9000C08800EB400101EB001084B20AA120469B
:100EA00000F0C4FB74224FF49871E82000F072FB4C
:100EB000702318221946002000F0ECFB10BD000042
:100EC00033363000313230002020300070B5044617
:100ED0000E46154600BF00F0B9FAA02000F0ECFA6B
:100EE00000B102E000F0CCFAF5E700BF304600F0B8
:100EF000E3FA00F0ABFAA12000F0DEFA04E000F023
:100F000069FA04F8010B6D1E012DF8DC00F080FA7F
:100F1000207000F0B5FA70BD70B506460C46154657
:100F200023E000BF00F092FAA02000F0C5FA00B163
:100F300002E000F0A5FAF5E700BF204600F0BCFA99
:100F40000EE016F8010B00F0B7FA6D1E601CC4B27B
:100F5000E11704EB5171C910A4EBC10101B901E023
:100F6000002DEEDC00BF00F08BFA002DD9DC70BD47
:100F700010B54FF4805000F043F828B10120144917
:100F80000870000300F036F84FF4005000F038F815
:100F900028B102200E490870000300F02BF84FF42E
:100FA000804000F02DF830B10320094908704FF45B
:100FB000804000F01FF84FF4004000F021F828B105
:100FC000042003490870400300F014F810BD00002D
:100FD0005000002010B5042000F012F838B1044889
:100FE0000068401C02490860042000F003F810BDAE
:100FF00018000020014908607047000014040140F7
:10100000014600200022074B1B6803EA0102054B42
:1010100014331B680B4013B10AB1012000E000201B
:101020007047000000040140002123498279002A12
:101030003AD00A46126803689A430B461A600A1DA2
:10104000126803689A430B1D1A60027911440A68FA
:1010500003681A430A60184A0832126803689A4300
:10106000154B08331A601A1D126803689A43124B15
:101070000C331A604279102A0ED11A1F12680368C5
:101080001A430D4B08331A601A1D126803681A437D
:10109000094B0C331A600DE00749427911440A6884
:1010A00003681A430A6005E0027911440A6803687C
:1010B0009A430A60704700000004014051B1820069
:1010C000A2F1C042126842F001038200A2F1C042C4
:1010D000136009E08200A2F1C0421268034B1A407B
:1010E0008300A3F1C0431A6070470000FEFF0F00A9
:1010F000D0E901121143C2681143026911434269E8
:10110000114382691143C2691143026A1143426A61
:101110001143826A1143C26A1143026B1143026890
:101120009200A2F1C0421160816808290BD10168C8
:101130008900A1F1C041096841F0400201688900BD
:10114000A1F1C0410A60416B0968426B526841EAF3
:101150000211426B926841EA0221426B928941EA94
:101160000241426B128A41EA0251426B127D41EA0E
:101170000261426B926911430268521C9200A2F113
:10118000C0421160C16AB1F5804F1BD1816B096803
:10119000826B526841EA0211826B926841EA022135
:1011A000826B128A41EA0251826B127D41EA02612E
:1011B000826B9269114302689200A2F1C042C2F8A8
:1011C000041107E06FF0704201688900A1F1C0418D
:1011D000C1F804217047000030B500228B071C0FB6
:1011E0000F2303FA04F20B4B8C1053F82430934373
:1011F000084C8D1044F8253023468C1053F82430C9
:101200008C07240F00FA04F42343024C8D1044F899
:10121000253030BD080001402DE9F041024600258F
:101220000026002000230024002791F803C00CF0C2
:101230000F0591F803C00CF0100CBCF1000F03D0A7
:1012400091F802C04CEA050591F800C0BCF1000F0E
:1012500031D0146800202BE04FF0010C0CFA00F3A1
:10126000B1F800C00CEA03069E4220D183004FF083
:101270000F0C0CFA03F7BC4305FA03FC4CEA040418
:1012800091F803C0BCF1280F06D14FF0010C0CFA05
:1012900000FCC2F814C00AE091F803C0BCF1480F8A
:1012A00005D14FF0010C0CFA00FCC2F810C0401C34
:1012B0000828D1D31460B1F800C0BCF1FF0F34DDB1
:1012C000546800202EE000F1080C4FF0010808FAE5
:1012D0000CF3B1F800C00CEA03069E4221D1830052
:1012E0004FF00F0C0CFA03F7BC4305FA03FC4CEA71
:1012F000040491F803C0BCF1280F05D100F1080CDB
:1013000008FA0CF8C2F8148091F803C0BCF1480F39
:1013100007D100F1080C4FF0010808FA0CF8C2F8E8
:101320001080401C0828CED35460BDE8F0810146EF
:10133000886880B270470246002093680B400BB16A
:10134000012000E000207047416170470161704753
:1013500000BFFEE708B50121102001F0FDFD0C21C2
:101360000848FFF7F3FF0C20ADF8000014208DF8BB
:10137000030001208DF8020069460248FFF74CFF88
:1013800008BD00000010014070B5002401200F4985
:101390000860002516E0052002F03FFC01200B4903
:1013A000091F08606006040E0948D0F80C0108B156
:1013B00044F00104052002F030FC00200349091F1D
:1013C00008606D1C082DE6DB204670BD8C012242B2
:1013D0000000224210B5FFF7D7FF044600200A495B
:1013E0000860052002F019FC01200849C1F88801B5
:1013F000052002F012FC00200349091F08600520A7
:1014000002F00BFC204610BD8C012242000022425B
:1014100010B5FFF7B9FF044601200A49086005200E
:1014200002F0FBFB01200849C1F88801052002F009
:10143000F4FB00200349091F0860052002F0EDFBC2
:10144000204610BD8C0122420000224210B501202E
:10145000094908600949C1F88801052002F0DDFB4F
:10146000002005490860052002F0D7FB0020034951
:10147000C1F8880110BD00008C0122420000224208
:1014800010B500200A4908600A49C1F88C010520FE
:1014900002F0C3FB012006490860052002F0BDFBF5
:1014A00001200449C1F88C01052002F0B6FB10BDF3
:1014B000880122420000224270B50446002614E052
:1014C000C4F3C01018490860052002F0A6FB0120F3
:1014D0001649C1F88801052002F09FFB002012493F
:1014E000091F08606006040E761C082EE8DB012048
:1014F0000D490860052002F090FB01200B49C1F85E
:101500008801094880380068C5B2052002F085FBD3
:1015100000200649C1F88801052002F07EFB0DB9C4
:10152000012070BD0020FCE78C0122420000224215
:1015300010B504462CB14FF480510548FFF704FF65
:1015400004E04FF480510248FFF700FF10BD000097
:10155000001401402DE9F04106460F4614461D4691
:101560002B4622463946304600F060FA04FB05F06F
:101570000249098800F00DF9BDE8F081360000202D
:1015800001B502E00098401E009000980028F9D1B3
:1015900008BD00002DE9F05F804689461646A6F199
:1015A00020001FFA80FA1E49096889881C4A1268BF
:1015B000D28801FB02F0C11700EB5171C1F3C707DC
:1015C0001748006800680AFB070B15480068C388C5
:1015D0001348006882884946404600F027FA2C20CC
:1015E00000F0A6FB002416E0002510E01BF8040024
:1015F00080212941084020B10A48008800F09CFB66
:1016000003E00948008800F097FB681CC5B2082D6C
:10161000ECDB601CC4B2BC42E6DBBDE8F09F00001E
:1016200030000020340000203600002070B5044651
:101630000D46002624E0304613490968898808448D
:1016400012490988884205DD00260F480068C088D5
:10165000204484B220460C490968C98808440C49D2
:101660000988884201DD002600242A782146304678
:10167000FFF790FF6D1C044800688088304486B2F4
:1016800028780028D7D170BD300000202A00002023
:101690002C0000202DE9FF4F83B081464FF0000A57
:1016A000D3460598A0EB090504990698461ACDF88B
:1016B000049004980090002D01DD012705E00DB98C
:1016C000002702E04FF0FF376D42002E02DD4FF0A1
:1016D000010806E016B94FF0000802E04FF0FF38AD
:1016E0007642B54201DD2C4600E0344600200290EF
:1016F00019E0DDE9001000F0FFFAAA44B344A24566
:1017000005DDAAEB040A0198384480B20190A34594
:1017100005DDABEB040B0098404480B200900298CA
:10172000401C80B20290611C02988842E1DD07B043
:10173000BDE8F08F00B597B00121080201F0ECFB85
:101740000120019004200390800607900020029061
:101750000490059006900890099008200A901020A7
:101760000B9000200C900E900F9010904FF4805032
:101770001190002012901390149001A815901690CB
:1017800008A8FFF7B5FC01210020FFF797FC17B070
:1017900000BD70B504460D4600262C2000F0C8FAA6
:1017A00000BF03E0284600F0C7FA761CA642F9D332
:1017B00070BD000008B50121602001F0CDFB0320C1
:1017C0008DF8020018208DF803004FF48040ADF82A
:1017D000000069465B48FFF71FFD4FF40040ADF87D
:1017E000000069465748FFF717FD0120ADF80000DB
:1017F00069465448FFF710FD0220ADF80000694625
:101800005048FFF709FD8020ADF8000069464E48BA
:10181000FFF702FD4FF48070ADF8000069464A48BA
:10182000FFF7FAFC4FF40070ADF800006946464837
:10183000FFF7F2FC4FF48060ADF8000069464248C3
:10184000FFF7EAFC4FF40060ADF8000069463E483F
:10185000FFF7E2FC4FF48050ADF8000069463A48CB
:10186000FFF7DAFC4FF40050ADF800006946364847
:10187000FFF7D2FC4FF48040ADF8000069463248D3
:10188000FFF7CAFC4FF40040ADF8000069462E484F
:10189000FFF7C2FC4FF48070ADF80000694629489C
:1018A000FFF7BAFC4FF40070ADF800006946254818
:1018B000FFF7B2FC4FF48060ADF8000069462148A4
:1018C000FFF7AAFC03208DF8020018208DF8030012
:1018D0001020ADF8000069461A48FFF79DFC202053
:1018E000ADF8000069461748FFF796FC8020ADF878
:1018F000000069461348FFF78FFC4FF40060ADF815
:10190000000069460F48FFF787FC10208DF80300A0
:1019100003208DF802000220ADF8000069460A4855
:10192000FFF77AFC10208DF8030003208DF80200E9
:101930004FF48050ADF8000069460248FFF76CFC98
:1019400008BD0000001401400018014010B5044615
:10195000072C00DD10BD28480470204604EBD07130
:101960004910A4EB410139B9F020244908804FF413
:10197000A0702349088006E04FF4A0701F4908803A
:10198000F0201F490880362000F0D2F9082141EAF2
:10199000441000F0D1F92A2000F0CAF9002000F02C
:1019A000CBF9002000F0C8F914490988491EC1F399
:1019B000072000F0C1F911490978491EC8B200F0AA
:1019C000BBF92B2000F0B4F9002000F0B5F900209D
:1019D00000F0B2F90A490988491EC1F3072000F056
:1019E000ABF907490978491EC8B200F0A5F92C20C7
:1019F00000F09EF900BFADE72E0000202A00002075
:101A00002C00002010B5FFF7D5FEFFF793FE012054
:101A1000FFF78EFD00F052F900F038F80248007828
:101A2000FFF794FF10BD00002E0000202DE9F041CB
:101A300004460D4616461F462A2000F079F920126A
:101A400000F07AF9E0B200F077F9A119491EC1F36C
:101A50000F2000F071F9A119491EC8B200F06CF90D
:101A60002B2000F065F9281200F066F9E8B200F0CA
:101A700063F9E919491EC1F30F2000F05DF9E91976
:101A8000491EC8B200F058F9BDE8F08110B5CF206A
:101A900000F04EF9002000F04FF9812000F04CF9E1
:101AA000302000F049F9ED2000F042F9642000F008
:101AB00043F9032000F040F9122000F03DF98120A5
:101AC00000F03AF9E82000F033F9852000F034F90D
:101AD000102000F031F9782000F02EF9CB2000F032
:101AE00027F9392000F028F92C2000F025F90020F2
:101AF00000F022F9342000F01FF9022000F01CF958
:101B0000F72000F015F9202000F016F9EA2000F087
:101B10000FF9002000F010F9002000F00DF9B120BD
:101B200000F006F9002000F007F91B2000F004F98E
:101B3000B62000F0FDF80A2000F0FEF8A22000F028
:101B4000FBF8C02000F0F4F8352000F0F5F8C120D3
:101B500000F0EEF8112000F0EFF8C52000F0E8F8F2
:101B6000452000F0E9F8452000F0E6F8C72000F035
:101B7000DFF8A22000F0E0F8F22000F0D9F8002011
:101B800000F0DAF8262000F0D3F8012000F0D4F8B5
:101B9000E02000F0CDF80F2000F0CEF8262000F075
:101BA000CBF8242000F0C8F80B2000F0C5F80E2078
:101BB00000F0C2F8092000F0BFF8542000F0BCF893
:101BC000A82000F0B9F8462000F0B6F80C2000F08C
:101BD000B3F8172000F0B0F8092000F0ADF80F209E
:101BE00000F0AAF8072000F0A7F8002000F0A4F801
:101BF000E12000F09DF8002000F09EF8192000F090
:101C00009BF81B2000F098F8042000F095F81020B5
:101C100000F092F8072000F08FF82A2000F08CF8EE
:101C2000472000F089F8392000F086F8032000F002
:101C300083F8062000F080F8062000F07DF83020C0
:101C400000F07AF8382000F077F80F2000F074F8F0
:101C5000362000F06DF8C82000F06EF82A2000F061
:101C600067F8002000F068F8002000F065F8002018
:101C700000F062F8EF2000F05FF82B2000F058F839
:101C8000002000F059F8002000F056F8012000F084
:101C900053F83F2000F050F83A2000F049F8552062
:101CA00000F04AF8112000F043F80348FFF768FC01
:101CB000292000F03DF810BDFCBF020010B5022144
:101CC0000748FFF741FB40F6FF20FFF759FC0221D0
:101CD0000348FFF73BFB40F6FF20FFF751FC10BD28
:101CE0000018014070B504460D4601231A462946E6
:101CF0002046FFF79BFE70BD70B505460C460948AF
:101D0000008885420CDA08480088844208DA2146B7
:101D10002846FFF7E7FF054801880120FFF739FD56
:101D200070BD00002A0000202C000020340000209C
:101D30004FF0C0410880704701490880704700009B
:101D4000000002600EB54FF4E06000F061FE01217A
:101D5000082001F001F90121084601F0FDF80C21ED
:101D60000120FFF739FA4FF48050009001208DF8E0
:101D7000060000208DF804000C208DF80500684650
:101D8000FFF752F928208DF8080001208DF80B008C
:101D900000208DF8090005208DF80A0002A800F047
:101DA000FFFD0D210120FFF717FA4FF400500090BE
:101DB00001208DF8060000208DF804000C208DF81D
:101DC00005006846FFF730F928208DF8080001204B
:101DD0008DF80B0000208DF8090006208DF80A0010
:101DE00002A800F0DDFD0E210120FFF7F5F94FF408
:101DF0008040009001208DF8060000208DF804003E
:101E00000C208DF805006846FFF70EF928208DF8A4
:101E1000080001208DF80B0000208DF80900072034
:101E20008DF80A0002A800F0BBFD0F210120FFF78A
:101E3000D3F94FF40040009001208DF806000020F7
:101E40008DF804000C208DF805006846FFF7ECF8CB
:101E500028208DF8080001208DF80B0000208DF857
:101E6000090007208DF80A0002A800F099FD0EBDB8
:101E700008B54FF47040ADF8000048208DF803001D
:101E800069460948FFF7C8F94FF47060ADF80000E3
:101E900010208DF8030003208DF8020069460248E7
:101EA000FFF7BAF908BD0000000C014008B54FF477
:101EB0007060ADF8000048208DF8030069460948BD
:101EC000FFF7AAF94FF47040ADF8000010208DF82C
:101ED000030003208DF8020069460248FFF79CF9D1
:101EE00008BD0000000C014070B500250024FFF77C
:101EF000BFFF4FF470615E48FFF726FA4FF4704160
:101F00005B48FFF723FA4FF480515948FFF713FA63
:101F100090B14FF400515648FFF70DFA60B14FF4FD
:101F200080415348FFF707FA30B14FF40041504861
:101F3000FFF701FA00286FD1142001F061FE4FF481
:101F400080514B48FFF7F7F988B14FF400514848EA
:101F5000FFF7F1F958B14FF480414548FFF7EBF92D
:101F600028B14FF400414248FFF7E5F918B940485D
:101F7000FFF7DDF9050AFFF799FF4FF470613C4860
:101F8000FFF7E4F94FF470413948FFF7DDF93848BD
:101F9000FFF7CDF9040A2543D72D3ED012DCB72D2B
:101FA0003DD008DC772D3CD07B2D31D07D2D27D046
:101FB0007E2D38D11CE0BB2D28D0BD2D1ED0BE2DCE
:101FC00031D113E0E72D25D006DCDB2D1CD0DD2D33
:101FD00012D0DE2D27D107E0EB2D13D0ED2D09D047
:101FE000EE2D20D1012420E002241EE003241CE079
:101FF00004241AE0052418E0062416E0072414E05F
:10200000082412E0092410E00A240EE00B240CE05E
:102010000C240AE00D2408E028E00E2405E00F243B
:1020200003E0102401E0002400BF00BF00BF4FF414
:1020300080710F48FFF77FF90028F8D04FF4007146
:102040000B48FFF778F90028F1D04FF48061084879
:10205000FFF771F90028EAD04FF400610448FFF758
:102060006AF90028E3D0142001F0CAFD204670BDB3
:10207000000C014010B5F748007800286FD0002010
:10208000F4490870FFF730FFF349087008460078FC
:102090000028F3D0084600780C2856D004DC042829
:1020A00029D0082866D13BE00F2802D0102861D142
:1020B00056E0EA48007828B90120E8490870FEF7A0
:1020C0006BFCC3E300F02CFD00F074FEFEF772FD24
:1020D000FEF7A2FD00F06EFE00F02CFEE048007856
:1020E00008B900F027FC0020DC490870DD490870C1
:1020F000FEF752FCAAE3D948007880B1D7480078AF
:10210000401CD649087008460078052801DD0520E6
:1021100008700020D3490870FEF73EFC96E395E373
:10212000CE48007880B1CD480078401ECB49087079
:1021300008460078012801DA012008700020C9490A
:102140000870FEF729FC81E380E30020C449087091
:10215000FEF762FD00F02EFE00F0ECFD76E376E384
:102160000120BF490870FEF757FD00F023FE00F084
:10217000E1FD6BE3B9480078062877D2DFE800F08C
:10218000030424F5F0EF5FE3B348007801280CD096
:102190000E2816D13020B449B24A12788854002251
:1021A000B0480078401C0A540CE03120AE49AD4ADA
:1021B000127888540021AC4AAA480078401C115477
:1021C00000E000BF00BF3FE3A34800780F2870D2B3
:1021D000DFE800F0C808192AC83B4D5EC87081923C
:1021E000C8A3B4003121A0482A309E4A12788154F5
:1021F00000229C490978491C42549A480078401CA6
:1022000098490870AFE0322197482A30954A1278F1
:102210008154002293490978491C4254914800781E
:10222000401C904908709EE033218F482A308D4A27
:102230001278815400228B490978491C42548948FC
:102240000078401C874908708DE0342186482A3088
:10225000844A12788154002282490978491C4254E8
:1022600080480078401C7F4908707CE0EBE2352113
:102270007D482A307B4A12788154002279490978B6
:10228000491C425477480078401C764908706AE03F
:10229000362175482A30734A1278815400227149D8
:1022A0000978491C42546F480078401C6D490870F9
:1022B00059E057E037216C482A306A4A1278815435
:1022C000002268490978491C425466480078401C3D
:1022D0006449087047E0382163482A30614A12781F
:1022E000815400225F490978491C42545D480078B6
:1022F000401C5C49087036E039215B482A30594A55
:1023000012788154002257490978491C4254554893
:102310000078401C5349087025E02E2152482A308D
:10232000504A1278815400224E490978491C42547F
:102330004C480078401C4B49087014E030214A4852
:102340002A30484A12788154002246490978491CAB
:10235000425444480078401C4249087003E0A5E11B
:10236000D7E002E000BF00BF6EE23B4800780F28D4
:102370006FD2DFE800F0CB08192ACB3B4C5DCB7B5A
:102380008B9BCBABBB0031213748801C354A127880
:102390008154002233490978491C4254314800785D
:1023A000401C30490870B2E032212F48801C2D4A71
:1023B0001278815400222B490978491C425429483B
:1023C0000078401C27490870A1E033212648801C72
:1023D000244A12788154002222490978491C425427
:1023E00020480078401C1F49087090E034211E48A6
:1023F000801C1C4A1278815400221A490978491C11
:10240000425418480078401C164908707FE0352176
:102410001548801C134A127881540022114909780A
:10242000491C42540F480078401C0E4908706EE069
:1024300036210D48801C0B4A12788154002209492C
:102440000978491C425407480078401C0549087027
:102450005DE05BE0500000205300002052000020AF
:102460001400002015000020C80000203721F84883
:10247000F84A127881540022F6490978491C4254DE
:10248000F4480078401CF349087040E03821F048D7
:10249000F04A127881540022EE490978491C4254CE
:1024A000EC480078401CEB49087030E03921E848DE
:1024B000E84A127881540022E6490978491C4254BE
:1024C000E4480078401CE349087020E02E21E048F1
:1024D000E04A127881540022DE490978491C4254AE
:1024E000DC480078401CDB49087010E03021D848F7
:1024F000D84A127881540022D6490978491C42549E
:10250000D4480078401CD349087000E000BF00BFE9
:102510009AE1D14800780F286FD2DFE800F0C408B4
:10252000192AC43B4C5DC46F8091C4A2B300312111
:10253000C7480A30C74A127881540022C549097831
:10254000491C4254C3480078401CC2490870ABE0A3
:102550003221BF480A30BF4A127881540022BD4957
:102560000978491C4254BB480078401CB94908709E
:102570009AE03321B6480A30B64A127881540022D4
:10258000B4490978491C4254B2480078401CB1490A
:10259000087089E03421AE480A30AE4A127881547E
:1025A0000022AC490978491C4254AA480078401CD2
:1025B000A849087078E03521A5480A30A54A127864
:1025C00081540022A3490978491C4254A14800784B
:1025D000401CA049087067E036219D480A309D4A9A
:1025E0001278815400229B490978491C4254994829
:1025F0000078401C9749087056E054E03721944811
:102600000A30944A12788154002292490978491C70
:10261000425490480078401C8E49087044E03821AC
:102620008B480A308B4A12788154002289490978F4
:10263000491C425487480078401C8649087033E0A2
:10264000392183480A30834A127881540022814913
:102650000978491C42547F480078401C7D49087025
:1026600022E02E217A480A307A4A127881540022D8
:1026700078490978491C425476480078401C7549CD
:10268000087011E0302172480A30724A1278815481
:10269000002270490978491C42546E480078401C59
:1026A0006C49087000E000BF00BFCDE06A480078C8
:1026B0000F286FD2DFE800F0C408192AC43B4C5D34
:1026C000C46F8091C4A2B300312161481430614AC3
:1026D0001278815400225F490978491C42545D48B0
:1026E0000078401C5B490870ABE032215848143038
:1026F000584A12788154002256490978491C42549C
:1027000054480078401C534908709AE033215048DF
:102710001430504A1278815400224E490978491CDD
:1027200042544C480078401C4A49087089E03421E2
:1027300047481430474A12788154002245490978A5
:10274000491C425443480078401C4249087078E0D4
:1027500035213F4814303F4A1278815400223D49C8
:102760000978491C42543B480078401C394908709C
:1027700067E0362136481430364A127881540022F8
:1027800034490978491C425432480078401C314988
:10279000087056E054E037212D4814302D4A127845
:1027A000815400222B490978491C42542948007859
:1027B000401C2849087044E0382125481430254A37
:1027C00012788154002223490978491C4254214837
:1027D0000078401C1F49087033E039211C48143030
:1027E0001C4A1278815400221A490978491C425423
:1027F00018480078401C1749087022E02E21144820
:102800001430144A12788154002212490978491C64
:10281000425410480078401C0E49087011E03021E5
:102820000B4814300B4A1278815400220949097868
:10283000491C425407480078401C0649087000E0D3
:1028400000BF00BF00E000BF00BF00BF00BF10BD61
:10285000CA000020150000205300002010B5FFF72B
:1028600007FBFFF76FFA10BD0148006870470000D2
:102870003000002010B5FFF7C5F80620FFF766F816
:10288000084800F01FF800214FF4FC6000F010F839
:10289000054803880548028800210846FEF75AFECD
:1028A00010BD0000380000202C0000202A0000206D
:1028B000024A1080024A1180704700003400002054
:1028C00036000020014908607047000030000020F9
:1028D00008B50120ADF8000010208DF8030003209A
:1028E0008DF802000121082000F036FB69460F48F0
:1028F000FEF792FC0220ADF8000069460B48FEF797
:102900008BFC2020ADF8000069460848FEF784FCE7
:1029100001210648FEF71AFD02210448FEF716FDC4
:1029200020210248FEF712FD08BD0000000C014006
:1029300000BFFEE710B540210348FEF707FD03483E
:1029400000F0DEF810BD0000000C0140000048421D
:10295000704708B54FF4C06000F05AF808208DF8B1
:10296000000000208DF8010001208DF802008DF894
:102970000300684600F014F808BD08B54FF4A060E5
:1029800000F046F825208DF8000001208DF80100A8
:102990008DF802008DF80300684600F001F808BDCC
:1029A00070B5002100230F22C47804B3154C2468AD
:1029B00004F4E064C4F5E064210AC1F10403CA40F0
:1029C000447804FA03F184781440214309010E4C41
:1029D0000678A155047804F01F050124AC40057861
:1029E0006D11AD0005F1E025C5F8004109E004785E
:1029F00004F01F050124AC40044D0678761145F81B
:102A0000264070BD0CED00E000E400E080E100E055
:102A100002490143024A1160704700000000FA05B4
:102A20000CED00E010B52C48007838BB2B4800783E
:102A300064281AD0692811D0702808D073281BD1B7
:102A40002648801C01F08EF92549086015E02348CE
:102A5000801C01F087F9224948610EE01F48801C64
:102A600001F080F91E49886107E01C48801C01F0D4
:102A700079F91B49C86100E000BF27E017480078DA
:102A800064281AD0692811D0702808D073281BD167
:102A90001248801C01F066F91249086015E00F48E1
:102AA000801C01F05FF90F4948610EE00B48801C63
:102AB00001F058F90B49886107E00848801C01F0D3
:102AC00051F90849C86100E000BF00BF00F072F989
:102AD00000F030F910BD000014000020FC000020C0
:102AE00088000020A800002010B50121034800F054
:102AF0007BFD0121014800F083FD10BD002C014049
:102B000070B5044604492046FDF78DFB0546FDF7E8
:102B1000B6FD0249088070BD00002041342C014000
:102B200010B532480078012808D1314801F01AF96F
:102B30000446FDF7A4FD2F49087000E000BF00BF68
:102B40002C48007840BB29480078022806D003288A
:102B50000BD0042810D005281CD114E024482A30BA
:102B600001F000F92449086015E02148801C01F0BB
:102B7000F9F8214948610EE01D480C3001F0F2F8E7
:102B80001D49886107E01A48163001F0EBF81A4930
:102B9000C86100E000BF28E014480078022806D091
:102BA00003280BD0042810D005281CD114E01048AD
:102BB0002A3001F0D7F81149086015E00C48801C54
:102BC00001F0D0F80D4948610EE009480C3001F0E1
:102BD000C9F80A49886107E00548163001F0C2F8D3
:102BE0000649C86100E000BF00BF10BD52000020D0
:102BF000C80000201400002088000020A800002049
:102C00007CB52B48007806284ED2DFE800F04D0353
:102C100011202F3E274801F0A5F80646FDF75CFD80
:102C200025A2CDE900011021302001F013F93CE08C
:102C300020482A3001F096F80646FDF74DFD1EA209
:102C4000CDE900011021A82001F004F92DE0194878
:102C5000801C01F087F80646FDF73EFD16A2CDE97F
:102C600000012021182001F0F5F81EE011480C3079
:102C700001F078F80646FDF72FFD0FA2CDE900011F
:102C80002021682001F0E6F80FE00A48163001F034
:102C900069F80646FDF720FD07A2CDE900012021D5
:102CA000B82001F0D7F800E000BF00BF7CBD0000F5
:102CB00052000020C80000202566000010B512A2B6
:102CC0000021082001F0C6F811A20021802001F0A7
:102CD000C1F811A21021082001F0BCF810A21021A7
:102CE000802001F0B7F810A22021082001F0B2F8EE
:102CF0000EA22021582001F0ADF80DA22021A8201D
:102D000001F0A8F810BD000076616C75653A00000E
:102D1000647574793A0000006D6F64653A000000D4
:102D2000676F616C3A000000503A0000493A0000B9
:102D3000443A00007CB51A4803781AA210213020CA
:102D400001F088F819490868FDF7C6FC18A2CDE91A
:102D500000011021A82001F07DF814494869FDF711
:102D6000BBFC13A2CDE900012021182001F072F86C
:102D70000E498869FDF7B0FC0DA2CDE900012021C4
:102D8000682001F067F80949C869FDF7A5FC08A2A9
:102D9000CDE900012021B82001F05CF87CBD0000E5
:102DA000140000202020202020256400680000203E
:102DB000256600000F48007868B90F4800680F4981
:102DC00008600D48406948610B48806988610A487D
:102DD000C069C8610CE00A480068084908600848F2
:102DE000406948610648806988610548C069C861D2
:102DF00070470000140000208800002068000020B8
:102E0000A8000020704700002DE9F04700252D485C
:102E1000007890B12C4A51681068FDF7FEF906461B
:102E2000FDF714FC041E01DB214600E06142084668
:102E3000FDF7F1FB2449886006E0234A51681068D9
:102E4000FDF7EBF9204988601F48C1684FF08040CA
:102E5000FDF7E9F981461C4881684846FDF7E0F92D
:102E60008046194801694046FDF785F9074616482E
:102E7000C1693846FDF7D7F90446134A916890694D
:102E8000FDF7D1F98046104AD1689068FDF7C5F981
:102E900081460D4841694846FDF7C5F90746414658
:102EA000FDF769F906462146FDF765F9054606482E
:102EB000C0680549086108468068C8602846BDE8C2
:102EC000F087000014000020680000200EB50121EA
:102ED000052000F041F8FFF73CFD0420ADF80800A4
:102EE0008DF80B0002A90B48FEF796F9022100208D
:102EF000FEF772F90420009000208DF804000820ED
:102F00008DF8050001208DF806006846FEF78CF864
:102F10000EBD00000008014029B1064A5269024373
:102F2000044B5A6104E0034A52698243014B5A61DF
:102F3000704700000010024029B1064AD2690243DE
:102F4000044BDA6104E0034AD2698243014BDA613F
:102F5000704700000010024029B1064A92690243FE
:102F6000044B9A6104E0034A92698243014B9A61DF
:102F7000704700000010024030B5002100220024FC
:102F800000232D4D6D6805F00C0121B1042905D0F9
:102F9000082923D105E0294D056022E0274D056071
:102FA0001FE0254D6D6805F47012234D6D6805F422
:102FB0008034022505EB92421CB9214D5543056032
:102FC0000BE01D4D6D6805F400351DB11C4D5543DA
:102FD000056002E0194D5543056002E0174D05609C
:102FE00000BF00BF144D6D6805F0F0010909154DD3
:102FF0006B5C0568DD4045600F4D6D6805F4E06170
:10300000090A104D6B5C4568DD4085600A4D6D68AE
:1030100005F46051C90A0B4D6B5C4568DD40C56025
:10302000054D6D6805F44041890B074D6B5CC56823
:10303000B5FBF3F5056130BD0010024000127A00C7
:1030400000093D000000002010000020704710B56E
:1030500000F002F810BD00000CB5002001900090B7
:103060003348006840F480303149086000BF304880
:10307000006800F4003000900198401C0190009816
:1030800018B90198B0F5A06FF1D12948006800F493
:10309000003010B10120009001E000200090009865
:1030A000012843D12348006840F0100021490860FE
:1030B0000846006820F0030008600846006840F0F9
:1030C000020008601A48406819494860084640688C
:1030D00048600846406840F48060486008464068A0
:1030E00020F47C1048600846406840F4E8104860CE
:1030F0000846006840F08070086000BF0C48006817
:1031000000F000700028F9D00948406820F0030062
:10311000074948600846406840F00200486000BF28
:103120000348406800F00C000828F9D10CBD0000ED
:1031300000100240002002407047000010B5134804
:10314000006840F0010011490860084640681049D5
:1031500008400E494860084600680E4908400B497F
:1031600008600846006820F480200860084640682F
:1031700020F4FE0048604FF41F008860FFF767FFEF
:103180004FF000600449086010BD000000100240CC
:103190000000FFF8FFFFF6FE08ED00E0F0B50C467A
:1031A000154600220021068C4FF6FE773E4006842D
:1031B000028B018C4FF60C7632407E1C06EA031619
:1031C0002E433243104EB0420ED0104EB0420BD0C0
:1031D000B0F1804F08D00E4EB04205D00D4EB04237
:1031E00002D00D4EB04206D14FF6FD76314044F08C
:1031F0000106314305E04FF6F576314044F0010613
:10320000314302830184F0BD002C014000340140B1
:103210000004004000080040000C0040F0B50C46DF
:103220001546002200210026078C4FF6EF7C07EAA6
:103230000C070784028B018C4FF6FF7707EA041610
:1032400040F6FF473A404FF6FF7707EA03373A4325
:103250004FF6FF7707EA05273A43114FB8420ED0E1
:10326000104FB8420BD0B0F1804F08D00E4FB8428B
:1032700005D00E4FB84202D00D4FB84206D14FF6DE
:10328000DF77394046F01007394305E04FF65F77A6
:10329000394044F01007394302830184F0BD000037
:1032A000002C0140003401400004004000080040B0
:1032B000000C0040F0B50C46154600220021002607
:1032C000078C4FF6FF6C07EA0C070784828B018C92
:1032D0004FF6FF7707EA04264FF60C773A404FF691
:1032E000FF7707EA03172F433A43114FB8420ED036
:1032F000104FB8420BD0B0F1804F08D00E4FB842FB
:1033000005D00E4FB84202D00D4FB84206D14FF64D
:10331000FF57394046F48077394305E04FF2FF57B5
:10332000394044F48077394382830184F0BD000042
:10333000002C01400034014000040040000800401F
:10334000000C0040F0B50C46154600220021002676
:10335000078C4EF6FF7C07EA0C070784828B018CF2
:103360004FF6FF7707EA043640F6FF473A404FF63C
:10337000FF7707EA05273A434FF6FF7707EA033757
:103380003A43114FB8420ED0104FB8420BD0B0F1B3
:10339000804F08D00E4FB84205D00E4FB84202D031
:1033A0000D4FB84206D14DF6FF77394046F48057AD
:1033B000394305E047F6FF57394044F48057394315
:1033C00082830184F0BD0000002C014000340140E4
:1033D0000004004000080040000C004000B587B029
:1033E0000020ADF810004FF4A760ADF814000020E5
:1033F000ADF81600ADF8120004A90E4800F066FA08
:1034000000231A4603210B4800F009F901A800F037
:103410008FF90020ADF80C0001A9074800F032F93F
:1034200000200449243108800121024800F0DCF822
:1034300007B000BD00040040000C004008B50121A9
:103440000220FFF779FDC020ADF8000004208DF8C0
:10345000030003208DF8020069460248FDF7DCFEF8
:1034600008BD0000000801402DE9F041012132486B
:1034700000F0F6F800285CD001212F4800F0B1F8E8
:103480002E48007888B92E480068FDF7D2F8064625
:103490002C4A2D4BFDF750F80446FDF730F92B4927
:1034A00048600020264908600DE029490888FDF79A
:1034B000C0F80646274A284BFCF7CCFF0446FDF728
:1034C0001EF922494860FFF79FFC04462348016823
:1034D0002046FCF750FE214908601848007890B15A
:1034E0001F491E480068FDF731F902D21C481B49EC
:1034F0000860002119480068FDF71EF915D2002068
:103500001649086011E0174914480068FDF71EF9D4
:1035100002D2144811490860002110480068FDF7E4
:103520000BF902D200200D4908600C480068FFF733
:10353000E7FABDE8F0810000001000401400002010
:1035400018000020C74B37894160E53F6800002024
:103550002404004048E17A14AE47D13F1C0000200B
:10356000000082420000C8427CB50121154800F0ED
:1035700077F830B30121134800F033F81249486856
:10358000FDF7AAF811A2CDE900010021382000F0D2
:1035900061FC0F480068FDF79FF80CA2CDE900011F
:1035A0000021A82000F056FC0A48007808B1FFF777
:1035B00027FBFDF7A1FB0848006880F001000649E1
:1035C00008607CBD001400406800002025660000F3
:1035D0001C000020520000200C0C0140CA43028253
:1035E0007047CA430282704721B1028842F001024B
:1035F000028004E002884FF6FE731A400280704792
:1036000031B1B0F8442042F40042A0F8442005E073
:10361000B0F84420C2F30E02A0F844207047F0B581
:103620000C4615461E460021002200230189028B0C
:10363000038C4FF6F877394021434FF6FC473A4068
:1036400040F201173A434FF6DD773B404FF6FF77E4
:1036500007EA06172F433B43018102830384F0BD31
:1036600030B50246002000230024158A05EA010334
:10367000958905EA010413B10CB1012000E0002096
:1036800030BD000070B505460C46244885420ED07A
:10369000234885420BD0B5F1804F08D021488542A0
:1036A00005D02148854202D02048854200D100E063
:1036B00000BF208850B92389A28861882846FFF777
:1036C0006DFDE188284600F0D5F825E02088042823
:1036D0000AD12389A28861882846FFF79FFDE188E7
:1036E000284600F0D0F817E0208808280AD123895E
:1036F000A28861882846FFF7DDFDE188284600F0B2
:10370000CFF809E02389A28861882846FFF71AFECE
:10371000E188284600F0CDF870BD0000002C014083
:10372000003401400004004000080040000C00404C
:10373000002101804180012181800021C18001811F
:1037400070471AB183890B43838102E083898B43DD
:103750008381704770B5002400220023058C4FF64A
:10376000FE7635400584028C8388048B4FF68F7576
:103770002C40B51E2C400D882C43751E2A400D8907
:103780002A434D882A43144DA8420BD0134DA8421A
:1037900008D0134DA84205D0124DA84202D0124DB8
:1037A000A84213D14FF6F7752A404D892A434FF6A8
:1037B000FB752A408D882A434FF6FF652B404FF654
:1037C000FF552B408D892B43CD892B438380048368
:1037D000CD888586028470BD002C014000340140F4
:1037E00000400140004401400048014000B587B05E
:1037F0000121C802FFF7B0FB0320ADF810004FF421
:103800007A70ADF814000020ADF81200ADF8160083
:103810008DF8180004A90B4800F058F86020ADF8A6
:1038200000000120ADF802000020ADF80600ADF860
:103830000800ADF80C0069460248FFF78BFF07B09F
:1038400000BD0000002C014008B501210420FFF755
:1038500083FB4FF48070ADF8000003208DF8020068
:1038600018208DF8030069460148FDF7D5FC08BD16
:1038700000080140028B4FF6F3731A400283028B5B
:103880000A4302837047028B4FF2FF331A400283D0
:10389000028B4FF6FF7303EA01231A43028370473A
:1038A000828B4FF6F3731A408283828B0A438283A2
:1038B0007047828B4FF2FF331A408283828B4FF620
:1038C000FF7303EA01231A438283704700220288B0
:1038D0001D4B98420ED01D4B98420BD0B0F1804F3B
:1038E00008D01B4B984205D01A4B984202D01A4B75
:1038F000984204D14FF68F731A404B881A43174BE6
:10390000984207D0164B984204D04FF6FF431A4016
:10391000CB881A4302808B8883850B8803850A4BEA
:1039200098420BD0094B984208D00E4B984205D0D4
:103930000D4B984202D00D4B984201D10B7A038671
:103940000123838270470000002C014000340140B5
:103950000004004000080040000C0040001000403F
:103960000014004000400140004401400048014074
:1039700010B540F22551144800F08EF810B31248EB
:1039800000F028F9C4B20D2C0BD00A2C09D00F4836
:103990000F49097844540E480078401C0C490870BF
:1039A0000BE00D2C09D100200849094A12788854EF
:1039B0000749087001200749087040F22551024864
:1039C00000F00AF810BD000000380140FC000020A3
:1039D000160000205400002001F40072B2F5007FB0
:1039E00000D100BFCA430280704721B1828942F4EE
:1039F0000052828104E082894DF6FF731A40828171
:103A00007047000000B585B001210420FFF7A4FA3B
:103A100001218803FFF7A0FA4FF40070ADF8100001
:103A200003208DF8120018208DF8130004A91848FF
:103A3000FDF7F2FB4FF48060ADF8100004208DF824
:103A4000130004A91248FDF7E7FB4FF4E1300090A2
:103A50000020ADF80400ADF80600ADF808000C2019
:103A6000ADF80A000020ADF80C006946094800F0E6
:103A700045F8FEF782FF012240F22551054800F08B
:103A800018F801210348FFF7B0FF05B000BD0000A2
:103A9000000801400038014002460020B1F5007FD7
:103AA00000D100BF13880B400BB1012000E00020C3
:103AB0007047F0B50346002400260025002040F69C
:103AC0006A17B94200D100BF1846C1F3421401F091
:103AD0001F06012707FA06F5012C01D10C3004E07E
:103AE000022C01D1103000E014301AB107682F43C6
:103AF000076002E00768AF430760F0BD2DE9F047BB
:103B000086B005460E460024A24600BFA146002707
:103B1000B08900B100BF2F462C8A4CF6FF700440DC
:103B2000F08804432C82AC894EF6F3100440B08830
:103B300031890843718908430443AC81AC8A4FF64C
:103B4000FF400440B0890443AC8201A8FFF714FA97
:103B50001F48874202D1DDF810A001E0DDF80CA07B
:103B6000A88900F4004040B10AEBCA0000EB0A103B
:103B700031684900B0FBF1F807E00AEBCA0000EB3E
:103B80000A1031688900B0FBF1F86420B8FBF0F04E
:103B900004012009642101FB1089A88900F4004078
:103BA00040B1322000EBC900B0FBF1F000F007009B
:103BB000044308E0322000EB09106421B0FBF1F06F
:103BC00000F00F0004432C8106B0BDE8F087000030
:103BD0000038014001468888C0F30800704700BFE4
:103BE000FEE702E008C8121F08C1002AFAD1704798
:103BF0007047002001E001C1121F002AFBD170476D
:103C000000B5034603E04FF47A7000F006F8181E82
:103C1000A3F101018BB2F6D100BD00EBC001C900D8
:103C20004FF0E0225161002191610521116100BF37
:103C30004FF0E021096901F480310029F8D0042116
:103C40004FF0E022116170471CB56420FFF7D8FFE8
:103C5000FDF780FBFEF73CFEFEF70CFEFDF7C6F815
:103C6000FFF7D0FEFFF732F9FFF7EEFDFFF7BEFDDD
:103C7000FEF73AFFFCF74CFEFCF776FE0121102020
:103C8000FFF75AF9FCF756FFFCF782FFFDF71EF825
:103C9000FFF7D4FBFFF7A2FB4FF480512648FDF756
:103CA00055FB2648FEF72CFFFEF7D8FDFCF7B4FFC6
:103CB000FFF780F8FFF702F8FFF73CF83AE0FEF76D
:103CC000D9F91F48007808B1FCF7DAFF1D480078E1
:103CD00048B14FF400611848FDF736FB4FF48051AE
:103CE0001548FDF731FB1848007818B30020164935
:103CF0000870164800F036F80746FCF7EDFC05465C
:103D00000E46FEF7B1FDC08800EB400084B20F48BC
:103D1000801ECDE9005603780DA22146082000F050
:103D200099F80A4800F01EF80D490860FFF702F8FC
:103D3000FEF778FEC3E7000000080140000048429B
:103D4000140000205200002054000020FE0000203B
:103D500050435F436D643A25633A256600000000D6
:103D6000680000202DE9F04F87B004464FF00009AD
:103D7000DFF8BCA04FF07E5B20782D2802D1DFF861
:103D8000B4B0641C1DE02078FCF753FCCDE90001C1
:103D90004846FCF7A1FC07460022274BFCF75AFBDC
:103DA0000546DDE90023FCF7AEFA0022234BCDE9FE
:103DB0000201FCF749FBCDE90401FCF7A0FC8146B8
:103DC000641C2078302805DB2078392802DC207834
:103DD0002E28D8D120782E2800D1641C1AE0217812
:103DE000A1F13000FCF717FC06465146FCF74DFAEE
:103DF00005464946FCF7BFF981465046FCF76CFC86
:103E0000054600220C4BFCF725FB0746FCF777FC28
:103E10008246641C2078302802DB20783928DEDDD9
:103E200059464846FCF7FFF907B0BDE8F08F00009F
:103E300000002041000080BF0000244000004840F6
:103E400010B50246012000E050430B1EA1F1010114
:103E5000FAD110BD0FB42DE9F04F8BB082468B46DE
:103E6000CDF828A0CDF824B00AA8089009A807909A
:103E70000024F7A0049017A806904DE21698007849
:103E80000A287AD00D2879D0252878D11698401C98
:103E9000169016980078662876D004DC632870D0D7
:103EA00064286FD104E073286DD07828F9D1D3E16C
:103EB000069850F8049B06904D4635B93022DDE94E
:103EC000071000F035FA761C56E0002D26DD0024A0
:103ED00004E0601CC4B20A2095FBF0F5002DF8D177
:103EE00026444D4617E0611E0A20FFF7A9FFB5FBE7
:103EF000F0F0C7B2611E0A20FFF7A2FFB5FBF0F198
:103F000000FB115507F13000C2B2DDE9071000F0E7
:103F10000FFA601EC4B2002CE5D12DE02D22DDE9A0
:103F2000071000F005FAC9F10005002404E0601C48
:103F3000C4B20A2095FBF0F5002DF8D12644C9F152
:103F4000000517E0611E0A20FFF77AFFB5FBF0F0CD
:103F5000C7B2611E0A20FFF773FFB5FBF0F100FB4B
:103F6000115507F13000C2B2DDE9071000F0E0F9A9
:103F7000601EC4B2002CE5D1B2E1B3E1B9E1BFE10A
:103F800002E0A1E1ABE152E10698C01D20F007007C
:103F90000146069000684968069A08320692CDE903
:103FA0000201FCF7ACFB8046CDF814800021059897
:103FB000FCF7C2FB06D1761C3022DDE9071000F0C9
:103FC000B7F933E100210598FCF7C0FB7DD24FF033
:103FD0007E510598FCF7BAFB57D80598FCF736FBDD
:103FE0000546002404E0601CC4B20A2095FBF0F5ED
:103FF000002DF8D126440598FCF728FB054617E06C
:10400000611E0A20FFF71CFFB5FBF0F0C7B2611E6E
:104010000A20FFF715FFB5FBF0F100FB115507F182
:104020003000C2B2DDE9071000F082F9601EC4B2B0
:10403000002CE5D101242E22DDE9071000F078F9EB
:10404000CDF814801EE021460A20FFF7F9FE01900A
:10405000FCF7EAFA02900599FCF7E5F80390FCF703
:10406000F5FA05460A2095FBF0F100FB1150C7B2A6
:1040700007F13000C2B2DDE9071000F059F9601C09
:10408000C4B2761C042CDEDDD0E0CDF814803022E2
:10409000DDE9071000F04CF92E22DDE9071000F0F1
:1040A00047F9B61C012420E021460A20FFF7C8FE8C
:1040B0000190FCF7B9FA41460290FCF7B4F803907E
:1040C000FCF7C4FA05460A2000E011E095FBF0F188
:1040D00000FB1150C7B207F13000C2B2DDE9071092
:1040E00000F026F9601CC4B2761C042CDCDD9DE0D7
:1040F00058490598FCF720FB62D82D22DDE907100E
:1041000000F016F9761C88F0004005900598FCF741
:104110009DFA054604E0601CC4B20A2095FBF0F548
:10412000002DF8D1264488F000400390FCF78EFA69
:10413000054617E0611E0A20FFF782FEB5FBF0F08E
:10414000C7B2611E0A20FFF77BFEB5FBF0F100FB52
:10415000115507F13000C2B2DDE9071000F0E8F8B0
:10416000601EC4B2002CE5D101242E22DDE9071027
:1041700000F0DEF888F0004005901EE021460A209D
:10418000FFF75EFE0190FCF74FFA02900599FCF7ED
:104190004AF80390FCF75AFA05460A2095FBF0F11D
:1041A00000FB1150C7B207F13000C2B2DDE90710C1
:1041B00000F0BEF8601CC4B2761C042CDEDD35E0D5
:1041C0002D22DDE9071000F0B3F83022DDE90710F9
:1041D00000F0AEF82E22DDE9071000F0A9F8F61C79
:1041E00088F00040059001241EE021460A20FFF7D8
:1041F00027FE0190FCF718FA02900599FCF713F8D6
:104200000390FCF723FA05460A2095FBF0F100FB2A
:104210001150C7B207F13000C2B2DDE9071000F05B
:1042200087F8601CC4B2761C042CDEDD58E00698CA
:10423000006804900698001D0690049ADDE90710B6
:1042400000F0A9F80498FBF78FFF064448E000004F
:1042500020000000000080BF069850F8049B0690E4
:104260004D46002406E0601CC4B22846E91705EB61
:1042700011710D11002DF6D126444D4621E0611E2D
:104280001020FFF7DDFDB5FBF0F0C7B2611E102076
:10429000FFF7D6FDB5FBF0F100FB1155092F07DC48
:1042A00007F13000C2B2DDE9071000F041F806E086
:1042B00007F15700C2B2DDE9071000F039F8601EBF
:1042C000C4B2002CDBD10BE0069810F8041BCAB274
:1042D0000690DDE9071000F02BF8761C00E000BF27
:1042E00000BF15E00A22DDE9071000F021F8761C76
:1042F0000EE00D22DDE9071000F01AF8761C07E049
:1043000016980278DDE9071000F012F8761C00BF5D
:1043100000BF1698401C16901698007800287FF46D
:10432000ADAD069030460BB0BDE8F00F5DF814FB64
:104330002DE9F04105460C4616462F88B4F800805A
:104340000D2E05D00A2E03D0C7F1F00007280ADA97
:10435000002028802088103020802088B0F5A07FA1
:1043600001DB00202080324641463846FDF712F935
:104370002888083028802888F0280ADB0020288038
:104380002088103020802088B0F5A07F01DB00203D
:104390002080BDE8F08170B505460E46144605E064
:1043A00014F8012B31462846FFF7C2FF2078002879
:1043B000F6D170BD00000000000000000000000009
:1043C000000000000000001818181818180800084D
:1043D0001800000000000034242424000000000025
:1043E000000000000000000016247F2424247E2406
:1043F00024000000000000083E6848681C161212E5
:104400007C10100000000061D29674081016294933
:10441000C6000000000000003C646438724ACE46CA
:104420007F000000000000181818180000000000AD
:104430000000000000000004081810303030301078
:1044400010180C04000000201008080C0404040CD0
:1044500008181020000000080A341C6A0800000038
:10446000000000000000000000001818187F181855
:10447000180000000000000000000000000000180C
:10448000180830000000000000000000003C0000A0
:104490000000000000000000000000000000001804
:1044A000180000000000000206040C08081010208C
:1044B00020400000000000003C6642475B734266FB
:1044C0003C000000000000001878480808080808B0
:1044D0007E000000000000003C4606060408102094
:1044E0007E000000000000007C0606043C0202067C
:1044F0007C000000000000000C1C14246444FF0435
:1045000004000000000000007E6060607E02020681
:104510007C000000000000001E30604876424262CD
:104520003C000000000000007E0206040C08181089
:1045300030000000000000003C6242361C6642422F
:104540003C000000000000003C664242661A020483
:10455000780000000000000000001818000000189B
:1045600018000000000000000000181800000018EB
:104570001808300000000000000004183060100C23
:104580000600000000000000000000007E007E0029
:1045900000000000000000000000301804060C10AD
:1045A00020000000000000301C0606061810001055
:1045B000100000000000001C224141DDB5A5A5AFA0
:1045C00094C0403C00000000181C342426627E4346
:1045D000C1000000000000007C4642467C4242428E
:1045E0007C000000000000001E2040404040406071
:1045F0003E000000000000007C4642434343424628
:1046000078000000000000007E6060607E606060F6
:104610007E000000000000007E6060607E606060E0
:1046200060000000000000001E604040CE42426278
:104630003E00000000000000424242427E424242F0
:1046400042000000000000007E1818181818181802
:104650007E000000000000007C0404040404044404
:1046600078000000000000004244485070584C445C
:1046700042000000000000002020202020202020F8
:104680003E000000000000006266675F5B5BC1C126
:10469000C100000000000000626272525A4A4E4699
:1046A00046000000000000003C6243C3C3C34362F5
:1046B0003C000000000000007C464242467840403A
:1046C00040000000000000003C6243C3C3C34362DB
:1046D0003C180F00000000007C6662667C6C64661B
:1046E00062000000000000003E6040601C06020204
:1046F0007C000000000000007F1818181818181817
:104700001800000000000000424242424242426261
:104710003C00000000000000C14342622624341C1B
:104720001800000000000000C1C141495B5B7666D3
:10473000660000000000000043663418181C246660
:10474000C300000000000000C14266341C181818A5
:1047500018000000000000007E02040C1810206009
:104760007E0000000000001C10101010101010102F
:104770001010101C000000402020101008080C042D
:10478000060200000000003C0C0C0C0C0C0C0C0C85
:104790000C0C0C3C00000000181C246200000000FF
:1047A0000000000000000000000000000000000009
:1047B000000000FF000000201000000000000000CA
:1047C000000000000000000000003C06023E4246DF
:1047D0007A0000000000004040405C6242424242D9
:1047E0007C0000000000000000001E2060406020EF
:1047F0003E0000000000000202023E6242424266A9
:104800003A0000000000000000003C62427E406070
:104810003E0000000000000F1810107E1010101055
:10482000100000000000000000003F664266584093
:104830003E43423C0000004040405C6242424242F3
:104840004200000000000018180078080808080856
:104850007E000000000000040C007C04040404043A
:1048600004040C78000000606060626C787068641A
:10487000620000000000007808080808080808081E
:104880007E000000000000000000764B4B4B4B4BBD
:104890004B0000000000000000005C624242424207
:1048A000420000000000000000003C6242434262FF
:1048B0003C0000000000000000005C6242424242F6
:1048C0007C4040400000000000003E6242424266E0
:1048D0003A0202020000000000006E726360606035
:1048E000600000000000000000003E20203C0602A6
:1048F0007C000000000000001010FE1010101010CE
:104900001E000000000000000000424242424266D9
:104910003A00000000000000000043426624341802
:1049200018000000000000000000C1C15B5A5E6674
:104930006600000000000000000062261C181C2613
:104940006200000000000000000043426624341CA6
:10495000181830E00000000000007E060C1810203F
:104960007E0000000000000E1810101030701010B3
:104970001010180E000008080808080808080808A1
:104980000808080800000030180808080C0E08087D
:10499000080818300000000000000000714B0600FD
:1049A0000000000000000000000000000000000007
:1049B00000000000000000000000000000000000F7
:1049C00000000000000000000000000000000000E7
:1049D0000000000000000000000000000000038054
:1049E00001800180018001800180018001800180BF
:1049F00001800000000003C003C0000000000000B0
:104A000000000000000000000000000000000E7028
:104A10000E700E700C30000000000000000000005E
:104A20000000000000000000000000000000000086
:104A30000000000000000000000000000000000076
:104A40000618063806307FFE0C300C300C300C3067
:104A50007FFE0C601C601860186000000000000001
:104A600000000000000000000000000000C000C0C6
:104A70000FF83CC831C031803D801F8003F001F841
:104A8000031C030C031C3FF83FE007000600000076
:104A90000000000000000000000000001C007E0E6E
:104AA000630C631863307E6000C001800300077CE4
:104AB0000EE61CC618C630C6607C00000000000070
:104AC00000000000000000000000000000000FE0F7
:104AD0001CF0387038701C601FC00F003F8C71CC08
:104AE00060EC607C70383CFC1FCE000000000000D1
:104AF000000000000000000000000000000003C0F3
:104B00000180018001800000000000000000000022
:104B10000000000000000000000000000000000095
:104B2000000000000000000000000000003000E075
:104B300001C0018003000700060006000E000E0001
:104B40000E000E00060007000300038001C000E015
:104B50000030000000000000000000000C00060013
:104B60000380018001C000E0006000600070007000
:104B700000700060006000E000C00180038006005B
:104B80000C00000000000000000000000000018098
:104B900011881DB803C007E03DBC018801800000FA
:104BA0000000000000000000000000000000000005
:104BB00000000000000000000000000000000000F5
:104BC00000000000018001800180018001807FFEE3
:104BD00001800180018001800000000000000000D1
:104BE00000000000000000000000000000000000C5
:104BF00000000000000000000000000000000000B5
:104C00000000000003C003C001C001C003801F00FA
:104C10000000000000000000000000000000000094
:104C200000000000000000000000000000000FF085
:104C30000000000000000000000000000000000074
:104C40000000000000000000000000000000000064
:104C50000000000000000000000000000000000054
:104C60000000000003C003C003C0000000000000FB
:104C7000000000000000000000000000000000181C
:104C800000380030006000E000C001C00180030077
:104C9000030006000E000C001C001800300000008D
:104CA0000000000000000000000000000000018083
:104CB0000FF01C38381C301C707E70EE738E7E0E28
:104CC0007C0C300C381C1E780FE000000000000047
:104CD00000000000000000000000000000000000D4
:104CE00007C01FC039C001C001C001C001C001C060
:104CF00001C001C001C03FFC3FFC000000000000FB
:104D00000000000000000000000000000000038020
:104D10001FF018380038001800380038007001E023
:104D2000038007001C003FFC3FFC00000000000067
:104D300000000000000000000000000000000780EC
:104D40001FF0003800380038003007E007F0003866
:104D5000001C001C001820F83FE0000000000000CC
:104D60000000000000000000000000000000000043
:104D700000F001B0033007300E301C303830703096
:104D80007FFE7FFE00300030003000000000000099
:104D90000000000000000000000000000000000013
:104DA0001FF818001800180018001FE000F8001C79
:104DB000001C001C003800F01FC0000000000000B4
:104DC00000000000000000000000000000000000E3
:104DD00003F80F001C001800300037F83C3C300C82
:104DE000300C380C381C1E380FF00000000000009A
:104DF00000000000000000000000000000000000B3
:104E00003FFC001C001800380070006000E001C08A
:104E100001800380070006000E0000000000000073
:104E2000000000000000000000000000000003C0BF
:104E30001FF8381C381C381C1C380FF007F01C7881
:104E4000381C300C381C3C380FF00000000000000B
:104E500000000000000000000000000000000380CF
:104E60001FF03838301C701C700C380C1FFC0FCC35
:104E7000001C001800701FE01F80000000000000F0
:104E80000000000000000000000000000000000022
:104E900000000000000003C003C00180000000000B
:104EA0000000000003C003C003C0000000000000B9
:104EB00000000000000000000000000000000000F2
:104EC00000000000000003C003C0018000000000DB
:104ED0000000000003C003C001C001C003800F0038
:104EE00000000000000000000000000000000000C2
:104EF00000000000003800F001C007001E0038006C
:104F00000E00078001C000700030000000000000AB
:104F10000000000000000000000000000000000091
:104F2000000000000000000000003FFC0000000046
:104F30003FFC3FFC000000000000000000000000FB
:104F40000000000000000000000000000000000061
:104F5000000000001C000F00038001E00078001C2E
:104F6000007001E003800E000C0000000000000053
:104F700000000000000000000000000000000FC062
:104F800000F0003800380038003803F003800300D8
:104F90000300000000000780078000000000000000
:104FA00000000000000000000000000000E007F822
:104FB0000C0C18063006700363F36633C673CC63BB
:104FC000CC62CC66CCE6C7FCE00060007000381014
:104FD0001FF00000000000000000000000000000C2
:104FE00003C007E006E00E700E700C301C38181875
:104FF0003FFC3FFC700E600EE00700000000000068
:1050000000000000000000000000000000000000A0
:105010003FF03838381C381C38383FF03FF8381C1F
:10502000380C380C381C3FF83FE00000000000004E
:10503000000000000000000000000000000000E090
:1050400007FC1E043800380030007000700070004B
:10505000300038003C001F9C07FC000000000000EE
:105060000000000000000000000000000000000040
:105070003FF03078301C300C300E300E300E300ED9
:10508000300E301C30383FF03FC000000000000000
:105090000000000000000000000000000000000010
:1050A0001FF818001800180018001FF81FF8180043
:1050B0001800180018001FF81FF80000000000007A
:1050C00000000000000000000000000000000000E0
:1050D0001FF818001800180018001FF81FF8180013
:1050E0001800180018001800180000000000000048
:1050F000000000000000000000000000000000F0C0
:1051000007FC1E04380030007000700070FC700C4A
:10511000700C300C380C1F1C07FC00000000000055
:10512000000000000000000000000000000000007F
:10513000300C300C300C300C300C3FFC3FFC300C91
:10514000300C300C300C300C300C00000000000033
:10515000000000000000000000000000000000004F
:105160003FFC01800180018001800180018001807D
:105170000180018001803FFC3FFC00000000000036
:10518000000000000000000000000000000000001F
:105190001FF00030003000300030003000300030B0
:1051A0000030003000701DE01FC000000000000053
:1051B00000000000000000000000000000000000EF
:1051C000381C387038E039C03B803F003F003B80DE
:1051D00039C038E038703838381C00000000000052
:1051E00000000000000000000000000000000000BF
:1051F0001C001C001C001C001C001C001C001C00CF
:105200001C001C001C001FFC1FFC00000000000014
:10521000000000000000000000000000000000008E
:10522000381C7C3C6C3E6E6E666E66CE63C66386D2
:1052300061866006600660066006000000000000EF
:10524000000000000000000000000000000000005E
:105250003C0C3C0C3E0C360C330C338C318C31CC7A
:1052600030EC306C307C303C301C00000000000022
:10527000000000000000000000000000000001C06D
:105280000FF81C3C381C700E700E60066006700E25
:10529000700E700C381C1E780FE00000000000003B
:1052A00000000000000000000000000000000000FE
:1052B0003FF0383C381C380C380C381C38783FE04C
:1052C00038003800380038003800000000000000C6
:1052D000000000000000000000000000000001C00D
:1052E0000FF81C3C381C700E700E60066006700EC5
:1052F000700E700C381C1E780FE0018001C000FF9A
:10530000003C000000000000000000000000000061
:105310003FF0383838183818383838F03FC038E09F
:10532000387038383838381C380E0000000000005B
:10533000000000000000000000000000000001E08C
:105340000FF83800380038003C001F8003F0007868
:10535000001C001C001C38783FE00000000000002A
:10536000000000000000000000000000000000003D
:105370007FFE018001800180018001800180018029
:105380000180018001800180018000000000000098
:10539000000000000000000000000000000000000D
:1053A000300C300C300C300C300C300C300C300C1D
:1053B000300C300C381C1C380FF0000000000000CE
:1053C00000000000000000000000000000000000DD
:1053D000E006700E700E381C381C1C181C380C307F
:1053E0000E70066007E003C003C00000000000006C
:1053F00000000000000000000000000000000000AD
:1054000060066006600660066186638673C673CEBA
:10541000766C366C3C3C3C3C381C000000000000C4
:10542000000000000000000000000000000000007C
:10543000301C38181C380E7007E003C003C007E0AA
:105440000E701C381838381C700E00000000000068
:10545000000000000000000000000000000000004C
:10546000700E700C381C1C380E70066007E003C00C
:1054700001800180018001800180000000000000A7
:10548000000000000000000000000000000000001C
:105490003FFC001C0038007000E001C003800700E2
:1054A0000E000C0018003FFC3FFC00000000000054
:1054B00000000000000000000000000007F007F0FE
:1054C00006000600060006000600060006000600AC
:1054D000060006000600060006000600060006009C
:1054E00007F00000000000000000000000001800AD
:1054F0001C000C000600070003000380018001C0AF
:1055000000C000600070003000380018000C00007F
:105510000000000000000000000000000FE00FE0AD
:10552000006000600060006000600060006000607B
:10553000006000600060006000600060006000606B
:105540000FE000000000000000000000000000006C
:1055500003C006C006600C301818301C00000000A4
:10556000000000000000000000000000000000003B
:10557000000000000000000000000000000000002B
:10558000000000000000000000000000000000001B
:10559000000000000000000000000000000000000B
:1055A000FFFF0000000000000000000000001E00DF
:1055B0000380000000000000000000000000000068
:1055C00000000000000000000000000000000000DB
:1055D00000000000000000000000000000000000CB
:1055E0000000000000001FF01038001C001C0FFC21
:1055F0001C1C381C381C3CFC1FDC00000000000098
:105600000000000000000000000000000000380062
:105610003800380038003BF83E1C3C1C380C380C75
:10562000380C380C381C3C781FE0000000000000EB
:10563000000000000000000000000000000000006A
:1056400000000000000007F80E001C0038003800C1
:10565000380038001C000F1807F800000000000098
:105660000000000000000000000000000000001C1E
:10567000001C001C001C0FFC1C1C381C301C301CA7
:10568000301C301C383C1CFC0F9C0000000000004B
:10569000000000000000000000000000000000000A
:1056A0000000000000000FF01C38381C300C3FFCDC
:1056B0003000300038001E0C07FC00000000000025
:1056C000000000000000000000000000003C01FE9F
:1056D00003800300030003007FFC7FFC0300030042
:1056E00003000300030003000300000000000000AB
:1056F00000000000000000000000000000000000AA
:105700000000000000000FFE1C3838183818183848
:105710001FF03B8030003FF01FFC300E700E381C35
:105720001FF800000000000000000000000038002A
:105730003800380038003BF83E383C1C381C381C18
:10574000381C381C381C381C381C000000000000B5
:10575000000000000000000000000000018003C005
:1057600003C0000000001FC001C001C001C001C093
:1057700001C001C001C001C03FFC000000000000EA
:105780000000000000000000000000000020007089
:105790000070000000003FF00070007000700070AA
:1057A000007000700070007000700070007020E0E9
:1057B0003FC00000000000000000000000001800D2
:1057C000180018001800183C187018E01B801F0003
:1057D0001B8019E018701838181C00000000000029
:1057E00000000000000000000000000000001FC0DA
:1057F00001C001C001C001C001C001C001C001C0A1
:1058000001C001C001C001C03FFC00000000000059
:105810000000000000000000000000000000000088
:105820000000000000006F3C79EE71CE718E718E29
:10583000718E718E718E718E718E0000000000006D
:105840000000000000000000000000000000000058
:105850000000000000003BF83E383C1C381C381C9F
:10586000381C381C381C381C381C00000000000094
:105870000000000000000000000000000000000028
:105880000000000000000FF01C3C381C700E700E71
:10589000700E700C381C1E780FE000000000000035
:1058A00000000000000000000000000000000000F8
:1058B0000000000000003BF83E1C3C1C380C380C7B
:1058C000380C380C381C3C783FE038003800380081
:1058D0003800000000000000000000000000000090
:1058E0000000000000000FFC1C1C381C301C301C89
:1058F000301C301C383C1CFC0F9C001C001C001C85
:10590000001C00000000000000000000000000007B
:1059100000000000000019F81F1C1C0C180E1800D5
:1059200018001800180018001800000000000000FF
:105930000000000000000000000000000000000067
:105940000000000000000FF81C0018001E000FC02F
:1059500001F80018001818381FF0000000000000BF
:105960000000000000000000000000000000000037
:105970000600060006007FFC060006000600060082
:10598000060006000700078401FC0000000000007C
:105990000000000000000000000000000000000007
:1059A000000000000000381C381C381C381C381C53
:1059B000381C381C383C1CFC0FDC000000000000C8
:1059C00000000000000000000000000000000000D7
:1059D000000000000000700C381C38181C380C3017
:1059E0000E70066007E003C003C000000000000066
:1059F00000000000000000000000000000000000A7
:105A0000000000000000600660066186738E73CCA3
:105A100033CC366C366C3C3C3C3800000000000057
:105A20000000000000000000000000000000000076
:105A3000000000000000381C1C380E7007E003C096
:105A400003C007E00E701C38381E00000000000084
:105A50000000000000000000000000000000000046
:105A6000000000000000700C381C38181C380C3086
:105A70000E70066007E003C003C0038007000E003D
:105A80007C0000000000000000000000000000009A
:105A90000000000000001FF80038007000E001C0A6
:105AA000038007000C001FFC3FFC0000000000000A
:105AB000000000000000000000000000007801F875
:105AC0000380038003800380038003003F003E00C7
:105AD000030003800380038003800380038001C0F0
